{
  "abi": [
    {
      "inputs": [
        {
          "internalType": "bytes32",
          "name": "seed",
          "type": "bytes32"
        },
        {
          "internalType": "uint64",
          "name": "yieldSize",
          "type": "uint64"
        },
        {
          "internalType": "uint256",
          "name": "count",
          "type": "uint256"
        }
      ],
      "name": "runKrng",
      "outputs": [
        {
          "internalType": "uint256[]",
          "name": "result10000s",
          "type": "uint256[]"
        }
      ],
      "stateMutability": "pure",
      "type": "function"
    },
    {
      "inputs": [
        {
          "internalType": "bytes32",
          "name": "seed",
          "type": "bytes32"
        },
        {
          "internalType": "uint256",
          "name": "count",
          "type": "uint256"
        }
      ],
      "name": "runlcg",
      "outputs": [
        {
          "internalType": "uint256[]",
          "name": "result10000s",
          "type": "uint256[]"
        }
      ],
      "stateMutability": "pure",
      "type": "function"
    }
  ],
  "bytecode": "6080604052348015600f57600080fd5b5061056b8061001f6000396000f3fe608060405234801561001057600080fd5b50600436106100365760003560e01c8063c227888d1461003b578063ee00ac8914610064575b600080fd5b61004e6100493660046103ec565b610077565b60405161005b9190610431565b60405180910390f35b61004e610072366004610475565b610112565b60608167ffffffffffffffff81111561009257610092610497565b6040519080825280602002602001820160405280156100bb578160200160208202803683370190505b50905060006100ca85856101ab565b905060005b83811015610109576100e08261024d565b61ffff168382815181106100f6576100f66104ad565b60209081029190910101526001016100cf565b50509392505050565b60608167ffffffffffffffff81111561012d5761012d610497565b604051908082528060200260200182016040528015610156578160200160208202803683370190505b509050600061016484610271565b905060005b838110156101a35761017a82610293565b61ffff16838281518110610190576101906104ad565b6020908102919091010152600101610169565b505092915050565b604080516080810182526000808252602080830182815293830182905260608301829052858252808220808452825290209091526101eb826101006104d9565b67ffffffffffffffff16156102375760405162461bcd60e51b815260206004820152600e60248201526d6b726e67207969656c6453697a6560901b604482015260640160405180910390fd5b67ffffffffffffffff9091166040820152919050565b600061026b61025b836102ce565b61ffff1662010000612710610336565b92915050565b60408051602081019091526000815261028982610352565b60e01c8152919050565b600064010000000082600001516219660d02633c6ef35f01816102b8576102b86104c3565b0680835261026b90640100000000612710610336565b6000816040015167ffffffffffffffff166010146102eb57600080fd5b816060015167ffffffffffffffff166101000361030b5761030b8261035f565b506060810180516020830151604090930151810167ffffffffffffffff908116909252161b60f01c90565b60008282850281610349576103496104c3565b04949350505050565b600061026b8260206103a5565b806060015167ffffffffffffffff166101001480156103815750602081015115155b61038a57600080fd5b60208082015160009081522060208201526000606090910152565b60006103b382610100610500565b156103bd57600080fd5b6000805b6101008110156103e45784811b91909118906103dd8482610514565b90506103c1565b509392505050565b60008060006060848603121561040157600080fd5b83359250602084013567ffffffffffffffff8116811461042057600080fd5b929592945050506040919091013590565b6020808252825182820181905260009190848201906040850190845b818110156104695783518352928401929184019160010161044d565b50909695505050505050565b6000806040838503121561048857600080fd5b50508035926020909101359150565b634e487b7160e01b600052604160045260246000fd5b634e487b7160e01b600052603260045260246000fd5b634e487b7160e01b600052601260045260246000fd5b600067ffffffffffffffff808416806104f4576104f46104c3565b92169190910692915050565b60008261050f5761050f6104c3565b500690565b8082018082111561026b57634e487b7160e01b600052601160045260246000fdfea26469706673582212200bbe1e270ad23d432db7a3600b432a86aedc119e755f7982b34503783537666f64736f6c63430008190033",
  "bytecodeSha1": "bbc9f132523686f22eff70cb782a420788d2bd72",
  "compiler": {
    "evm_version": "istanbul",
    "optimizer": {
      "enabled": true,
      "runs": 200
    },
    "version": "0.8.25+commit.b61c2a91"
  },
  "contractName": "RandomGeneratorTest",
  "language": "Solidity",
  "natspec": {
    "kind": "dev",
    "methods": {},
    "version": 1
  },
  "opcodes": "PUSH1 0x80 PUSH1 0x40 MSTORE CALLVALUE DUP1 ISZERO PUSH2 0x10 JUMPI PUSH1 0x0 DUP1 REVERT JUMPDEST POP PUSH1 0x4 CALLDATASIZE LT PUSH2 0x36 JUMPI PUSH1 0x0 CALLDATALOAD PUSH1 0xE0 SHR DUP1 PUSH4 0xC227888D EQ PUSH2 0x3B JUMPI DUP1 PUSH4 0xEE00AC89 EQ PUSH2 0x64 JUMPI JUMPDEST PUSH1 0x0 DUP1 REVERT JUMPDEST PUSH2 0x4E PUSH2 0x49 CALLDATASIZE PUSH1 0x4 PUSH2 0x3EC JUMP JUMPDEST PUSH2 0x77 JUMP JUMPDEST PUSH1 0x40 MLOAD PUSH2 0x5B SWAP2 SWAP1 PUSH2 0x431 JUMP JUMPDEST PUSH1 0x40 MLOAD DUP1 SWAP2 SUB SWAP1 RETURN JUMPDEST PUSH2 0x4E PUSH2 0x72 CALLDATASIZE PUSH1 0x4 PUSH2 0x475 JUMP JUMPDEST PUSH2 0x112 JUMP JUMPDEST PUSH1 0x60 DUP2 PUSH8 0xFFFFFFFFFFFFFFFF DUP2 GT ISZERO PUSH2 0x92 JUMPI PUSH2 0x92 PUSH2 0x497 JUMP JUMPDEST PUSH1 0x40 MLOAD SWAP1 DUP1 DUP3 MSTORE DUP1 PUSH1 0x20 MUL PUSH1 0x20 ADD DUP3 ADD PUSH1 0x40 MSTORE DUP1 ISZERO PUSH2 0xBB JUMPI DUP2 PUSH1 0x20 ADD PUSH1 0x20 DUP3 MUL DUP1 CALLDATASIZE DUP4 CALLDATACOPY ADD SWAP1 POP JUMPDEST POP SWAP1 POP PUSH1 0x0 PUSH2 0xCA DUP6 DUP6 PUSH2 0x1AB JUMP JUMPDEST SWAP1 POP PUSH1 0x0 JUMPDEST DUP4 DUP2 LT ISZERO PUSH2 0x109 JUMPI PUSH2 0xE0 DUP3 PUSH2 0x24D JUMP JUMPDEST PUSH2 0xFFFF AND DUP4 DUP3 DUP2 MLOAD DUP2 LT PUSH2 0xF6 JUMPI PUSH2 0xF6 PUSH2 0x4AD JUMP JUMPDEST PUSH1 0x20 SWAP1 DUP2 MUL SWAP2 SWAP1 SWAP2 ADD ADD MSTORE PUSH1 0x1 ADD PUSH2 0xCF JUMP JUMPDEST POP POP SWAP4 SWAP3 POP POP POP JUMP JUMPDEST PUSH1 0x60 DUP2 PUSH8 0xFFFFFFFFFFFFFFFF DUP2 GT ISZERO PUSH2 0x12D JUMPI PUSH2 0x12D PUSH2 0x497 JUMP JUMPDEST PUSH1 0x40 MLOAD SWAP1 DUP1 DUP3 MSTORE DUP1 PUSH1 0x20 MUL PUSH1 0x20 ADD DUP3 ADD PUSH1 0x40 MSTORE DUP1 ISZERO PUSH2 0x156 JUMPI DUP2 PUSH1 0x20 ADD PUSH1 0x20 DUP3 MUL DUP1 CALLDATASIZE DUP4 CALLDATACOPY ADD SWAP1 POP JUMPDEST POP SWAP1 POP PUSH1 0x0 PUSH2 0x164 DUP5 PUSH2 0x271 JUMP JUMPDEST SWAP1 POP PUSH1 0x0 JUMPDEST DUP4 DUP2 LT ISZERO PUSH2 0x1A3 JUMPI PUSH2 0x17A DUP3 PUSH2 0x293 JUMP JUMPDEST PUSH2 0xFFFF AND DUP4 DUP3 DUP2 MLOAD DUP2 LT PUSH2 0x190 JUMPI PUSH2 0x190 PUSH2 0x4AD JUMP JUMPDEST PUSH1 0x20 SWAP1 DUP2 MUL SWAP2 SWAP1 SWAP2 ADD ADD MSTORE PUSH1 0x1 ADD PUSH2 0x169 JUMP JUMPDEST POP POP SWAP3 SWAP2 POP POP JUMP JUMPDEST PUSH1 0x40 DUP1 MLOAD PUSH1 0x80 DUP2 ADD DUP3 MSTORE PUSH1 0x0 DUP1 DUP3 MSTORE PUSH1 0x20 DUP1 DUP4 ADD DUP3 DUP2 MSTORE SWAP4 DUP4 ADD DUP3 SWAP1 MSTORE PUSH1 0x60 DUP4 ADD DUP3 SWAP1 MSTORE DUP6 DUP3 MSTORE DUP1 DUP3 KECCAK256 DUP1 DUP5 MSTORE DUP3 MSTORE SWAP1 KECCAK256 SWAP1 SWAP2 MSTORE PUSH2 0x1EB DUP3 PUSH2 0x100 PUSH2 0x4D9 JUMP JUMPDEST PUSH8 0xFFFFFFFFFFFFFFFF AND ISZERO PUSH2 0x237 JUMPI PUSH1 0x40 MLOAD PUSH3 0x461BCD PUSH1 0xE5 SHL DUP2 MSTORE PUSH1 0x20 PUSH1 0x4 DUP3 ADD MSTORE PUSH1 0xE PUSH1 0x24 DUP3 ADD MSTORE PUSH14 0x6B726E67207969656C6453697A65 PUSH1 0x90 SHL PUSH1 0x44 DUP3 ADD MSTORE PUSH1 0x64 ADD PUSH1 0x40 MLOAD DUP1 SWAP2 SUB SWAP1 REVERT JUMPDEST PUSH8 0xFFFFFFFFFFFFFFFF SWAP1 SWAP2 AND PUSH1 0x40 DUP3 ADD MSTORE SWAP2 SWAP1 POP JUMP JUMPDEST PUSH1 0x0 PUSH2 0x26B PUSH2 0x25B DUP4 PUSH2 0x2CE JUMP JUMPDEST PUSH2 0xFFFF AND PUSH3 0x10000 PUSH2 0x2710 PUSH2 0x336 JUMP JUMPDEST SWAP3 SWAP2 POP POP JUMP JUMPDEST PUSH1 0x40 DUP1 MLOAD PUSH1 0x20 DUP2 ADD SWAP1 SWAP2 MSTORE PUSH1 0x0 DUP2 MSTORE PUSH2 0x289 DUP3 PUSH2 0x352 JUMP JUMPDEST PUSH1 0xE0 SHR DUP2 MSTORE SWAP2 SWAP1 POP JUMP JUMPDEST PUSH1 0x0 PUSH5 0x100000000 DUP3 PUSH1 0x0 ADD MLOAD PUSH3 0x19660D MUL PUSH4 0x3C6EF35F ADD DUP2 PUSH2 0x2B8 JUMPI PUSH2 0x2B8 PUSH2 0x4C3 JUMP JUMPDEST MOD DUP1 DUP4 MSTORE PUSH2 0x26B SWAP1 PUSH5 0x100000000 PUSH2 0x2710 PUSH2 0x336 JUMP JUMPDEST PUSH1 0x0 DUP2 PUSH1 0x40 ADD MLOAD PUSH8 0xFFFFFFFFFFFFFFFF AND PUSH1 0x10 EQ PUSH2 0x2EB JUMPI PUSH1 0x0 DUP1 REVERT JUMPDEST DUP2 PUSH1 0x60 ADD MLOAD PUSH8 0xFFFFFFFFFFFFFFFF AND PUSH2 0x100 SUB PUSH2 0x30B JUMPI PUSH2 0x30B DUP3 PUSH2 0x35F JUMP JUMPDEST POP PUSH1 0x60 DUP2 ADD DUP1 MLOAD PUSH1 0x20 DUP4 ADD MLOAD PUSH1 0x40 SWAP1 SWAP4 ADD MLOAD DUP2 ADD PUSH8 0xFFFFFFFFFFFFFFFF SWAP1 DUP2 AND SWAP1 SWAP3 MSTORE AND SHL PUSH1 0xF0 SHR SWAP1 JUMP JUMPDEST PUSH1 0x0 DUP3 DUP3 DUP6 MUL DUP2 PUSH2 0x349 JUMPI PUSH2 0x349 PUSH2 0x4C3 JUMP JUMPDEST DIV SWAP5 SWAP4 POP POP POP POP JUMP JUMPDEST PUSH1 0x0 PUSH2 0x26B DUP3 PUSH1 0x20 PUSH2 0x3A5 JUMP JUMPDEST DUP1 PUSH1 0x60 ADD MLOAD PUSH8 0xFFFFFFFFFFFFFFFF AND PUSH2 0x100 EQ DUP1 ISZERO PUSH2 0x381 JUMPI POP PUSH1 0x20 DUP2 ADD MLOAD ISZERO ISZERO JUMPDEST PUSH2 0x38A JUMPI PUSH1 0x0 DUP1 REVERT JUMPDEST PUSH1 0x20 DUP1 DUP3 ADD MLOAD PUSH1 0x0 SWAP1 DUP2 MSTORE KECCAK256 PUSH1 0x20 DUP3 ADD MSTORE PUSH1 0x0 PUSH1 0x60 SWAP1 SWAP2 ADD MSTORE JUMP JUMPDEST PUSH1 0x0 PUSH2 0x3B3 DUP3 PUSH2 0x100 PUSH2 0x500 JUMP JUMPDEST ISZERO PUSH2 0x3BD JUMPI PUSH1 0x0 DUP1 REVERT JUMPDEST PUSH1 0x0 DUP1 JUMPDEST PUSH2 0x100 DUP2 LT ISZERO PUSH2 0x3E4 JUMPI DUP5 DUP2 SHL SWAP2 SWAP1 SWAP2 XOR SWAP1 PUSH2 0x3DD DUP5 DUP3 PUSH2 0x514 JUMP JUMPDEST SWAP1 POP PUSH2 0x3C1 JUMP JUMPDEST POP SWAP4 SWAP3 POP POP POP JUMP JUMPDEST PUSH1 0x0 DUP1 PUSH1 0x0 PUSH1 0x60 DUP5 DUP7 SUB SLT ISZERO PUSH2 0x401 JUMPI PUSH1 0x0 DUP1 REVERT JUMPDEST DUP4 CALLDATALOAD SWAP3 POP PUSH1 0x20 DUP5 ADD CALLDATALOAD PUSH8 0xFFFFFFFFFFFFFFFF DUP2 AND DUP2 EQ PUSH2 0x420 JUMPI PUSH1 0x0 DUP1 REVERT JUMPDEST SWAP3 SWAP6 SWAP3 SWAP5 POP POP POP PUSH1 0x40 SWAP2 SWAP1 SWAP2 ADD CALLDATALOAD SWAP1 JUMP JUMPDEST PUSH1 0x20 DUP1 DUP3 MSTORE DUP3 MLOAD DUP3 DUP3 ADD DUP2 SWAP1 MSTORE PUSH1 0x0 SWAP2 SWAP1 DUP5 DUP3 ADD SWAP1 PUSH1 0x40 DUP6 ADD SWAP1 DUP5 JUMPDEST DUP2 DUP2 LT ISZERO PUSH2 0x469 JUMPI DUP4 MLOAD DUP4 MSTORE SWAP3 DUP5 ADD SWAP3 SWAP2 DUP5 ADD SWAP2 PUSH1 0x1 ADD PUSH2 0x44D JUMP JUMPDEST POP SWAP1 SWAP7 SWAP6 POP POP POP POP POP POP JUMP JUMPDEST PUSH1 0x0 DUP1 PUSH1 0x40 DUP4 DUP6 SUB SLT ISZERO PUSH2 0x488 JUMPI PUSH1 0x0 DUP1 REVERT JUMPDEST POP POP DUP1 CALLDATALOAD SWAP3 PUSH1 0x20 SWAP1 SWAP2 ADD CALLDATALOAD SWAP2 POP JUMP JUMPDEST PUSH4 0x4E487B71 PUSH1 0xE0 SHL PUSH1 0x0 MSTORE PUSH1 0x41 PUSH1 0x4 MSTORE PUSH1 0x24 PUSH1 0x0 REVERT JUMPDEST PUSH4 0x4E487B71 PUSH1 0xE0 SHL PUSH1 0x0 MSTORE PUSH1 0x32 PUSH1 0x4 MSTORE PUSH1 0x24 PUSH1 0x0 REVERT JUMPDEST PUSH4 0x4E487B71 PUSH1 0xE0 SHL PUSH1 0x0 MSTORE PUSH1 0x12 PUSH1 0x4 MSTORE PUSH1 0x24 PUSH1 0x0 REVERT JUMPDEST PUSH1 0x0 PUSH8 0xFFFFFFFFFFFFFFFF DUP1 DUP5 AND DUP1 PUSH2 0x4F4 JUMPI PUSH2 0x4F4 PUSH2 0x4C3 JUMP JUMPDEST SWAP3 AND SWAP2 SWAP1 SWAP2 MOD SWAP3 SWAP2 POP POP JUMP JUMPDEST PUSH1 0x0 DUP3 PUSH2 0x50F JUMPI PUSH2 0x50F PUSH2 0x4C3 JUMP JUMPDEST POP MOD SWAP1 JUMP JUMPDEST DUP1 DUP3 ADD DUP1 DUP3 GT ISZERO PUSH2 0x26B JUMPI PUSH4 0x4E487B71 PUSH1 0xE0 SHL PUSH1 0x0 MSTORE PUSH1 0x11 PUSH1 0x4 MSTORE PUSH1 0x24 PUSH1 0x0 REVERT INVALID LOG2 PUSH5 0x6970667358 0x22 SLT KECCAK256 SIGNEXTEND 0xBE 0x1E 0x27 EXP 0xD2 RETURNDATASIZE NUMBER 0x2D 0xB7 LOG3 PUSH1 0xB NUMBER 0x2A DUP7 0xAE 0xDC GT SWAP15 PUSH22 0x5F7982B34503783537666F64736F6C63430008190033 ",
  "sha1": "1ee62f730527c1973c87bc05f81f2a5d99f9eb03",
  "source": "// SPDX-License-Identifier: MIT\npragma solidity ^0.8.0;\n\nimport \"./RandomGenerator.sol\";\n\ncontract RandomGeneratorTest {\n    using Keccak256RG for Keccak256RG.KeccakRGState;\n    using LinearCongretureGenerator for LinearCongretureGenerator.LCGState;\n\n    function runKrng(bytes32 seed, uint64 yieldSize, uint256 count) public pure returns (uint256[] memory result10000s) {\n        result10000s = new uint256[](count);\n        Keccak256RG.KeccakRGState memory kst = Keccak256RG.init(seed, yieldSize);\n        for(uint256 i; i<count; i++) {\n            result10000s[i] = kst.yield10000();\n        }\n    }\n    function runlcg(bytes32 seed, uint256 count) public pure returns (uint256[] memory result10000s) {\n        result10000s = new uint256[](count);\n        LinearCongretureGenerator.LCGState memory lst = LinearCongretureGenerator.init(seed);\n        for(uint256 i; i<count; i++) {\n            result10000s[i] = lst.yield10000();\n        }\n    }\n}",
  "sourcePath": "contracts/RandomGeneratorTest.sol",
  "type": "contract"
}